{"abi":[{"type":"constructor","inputs":[],"stateMutability":"nonpayable"},{"type":"receive","stateMutability":"payable"},{"type":"function","name":"ADMIN_ROLE","inputs":[],"outputs":[{"name":"","type":"bytes32","internalType":"bytes32"}],"stateMutability":"view"},{"type":"function","name":"DEFAULT_ADMIN_ROLE","inputs":[],"outputs":[{"name":"","type":"bytes32","internalType":"bytes32"}],"stateMutability":"view"},{"type":"function","name":"ETH_ADDRESS","inputs":[],"outputs":[{"name":"","type":"address","internalType":"address"}],"stateMutability":"view"},{"type":"function","name":"MONTH_SECONDS","inputs":[],"outputs":[{"name":"","type":"uint256","internalType":"uint256"}],"stateMutability":"view"},{"type":"function","name":"SPENDER_ROLE","inputs":[],"outputs":[{"name":"","type":"bytes32","internalType":"bytes32"}],"stateMutability":"view"},{"type":"function","name":"addDelegate","inputs":[{"name":"bucketName","type":"string","internalType":"string"},{"name":"delegate","type":"address","internalType":"address"}],"outputs":[],"stateMutability":"nonpayable"},{"type":"function","name":"batchSpend","inputs":[{"name":"user","type":"address","internalType":"address"},{"name":"bucketNames","type":"string[]","internalType":"string[]"},{"name":"amounts","type":"uint256[]","internalType":"uint256[]"},{"name":"recipients","type":"address[]","internalType":"address[]"},{"name":"tokens","type":"address[]","internalType":"address[]"},{"name":"datas","type":"bytes[]","internalType":"bytes[]"}],"outputs":[],"stateMutability":"nonpayable"},{"type":"function","name":"canSpendFromBucket","inputs":[{"name":"user","type":"address","internalType":"address"},{"name":"bucketName","type":"string","internalType":"string"},{"name":"amount","type":"uint256","internalType":"uint256"}],"outputs":[{"name":"canSpend","type":"bool","internalType":"bool"},{"name":"reason","type":"string","internalType":"string"}],"stateMutability":"view"},{"type":"function","name":"createBucket","inputs":[{"name":"bucketName","type":"string","internalType":"string"},{"name":"monthlyLimit","type":"uint256","internalType":"uint256"}],"outputs":[],"stateMutability":"nonpayable"},{"type":"function","name":"depositETH","inputs":[],"outputs":[],"stateMutability":"payable"},{"type":"function","name":"depositToken","inputs":[{"name":"token","type":"address","internalType":"address"},{"name":"amount","type":"uint256","internalType":"uint256"}],"outputs":[],"stateMutability":"nonpayable"},{"type":"function","name":"emergencyWithdraw","inputs":[{"name":"user","type":"address","internalType":"address"},{"name":"token","type":"address","internalType":"address"}],"outputs":[],"stateMutability":"nonpayable"},{"type":"function","name":"fundBucket","inputs":[{"name":"bucketName","type":"string","internalType":"string"},{"name":"amount","type":"uint256","internalType":"uint256"},{"name":"token","type":"address","internalType":"address"}],"outputs":[],"stateMutability":"nonpayable"},{"type":"function","name":"getBucket","inputs":[{"name":"user","type":"address","internalType":"address"},{"name":"bucketName","type":"string","internalType":"string"}],"outputs":[{"name":"ethBalance","type":"uint256","internalType":"uint256"},{"name":"monthlySpent","type":"uint256","internalType":"uint256"},{"name":"monthlyLimit","type":"uint256","internalType":"uint256"},{"name":"timeUntilReset","type":"uint256","internalType":"uint256"},{"name":"active","type":"bool","internalType":"bool"}],"stateMutability":"view"},{"type":"function","name":"getBucketBalance","inputs":[{"name":"user","type":"address","internalType":"address"},{"name":"token","type":"address","internalType":"address"},{"name":"bucketName","type":"string","internalType":"string"}],"outputs":[{"name":"","type":"uint256","internalType":"uint256"}],"stateMutability":"view"},{"type":"function","name":"getRoleAdmin","inputs":[{"name":"role","type":"bytes32","internalType":"bytes32"}],"outputs":[{"name":"","type":"bytes32","internalType":"bytes32"}],"stateMutability":"view"},{"type":"function","name":"getTotalBalance","inputs":[{"name":"user","type":"address","internalType":"address"},{"name":"token","type":"address","internalType":"address"}],"outputs":[{"name":"total","type":"uint256","internalType":"uint256"}],"stateMutability":"view"},{"type":"function","name":"getUnallocatedBalance","inputs":[{"name":"user","type":"address","internalType":"address"},{"name":"token","type":"address","internalType":"address"}],"outputs":[{"name":"","type":"uint256","internalType":"uint256"}],"stateMutability":"view"},{"type":"function","name":"getUserBuckets","inputs":[{"name":"user","type":"address","internalType":"address"}],"outputs":[{"name":"","type":"string[]","internalType":"string[]"}],"stateMutability":"view"},{"type":"function","name":"grantRole","inputs":[{"name":"role","type":"bytes32","internalType":"bytes32"},{"name":"account","type":"address","internalType":"address"}],"outputs":[],"stateMutability":"nonpayable"},{"type":"function","name":"hasRole","inputs":[{"name":"role","type":"bytes32","internalType":"bytes32"},{"name":"account","type":"address","internalType":"address"}],"outputs":[{"name":"","type":"bool","internalType":"bool"}],"stateMutability":"view"},{"type":"function","name":"isDelegate","inputs":[{"name":"user","type":"address","internalType":"address"},{"name":"bucketName","type":"string","internalType":"string"},{"name":"delegate","type":"address","internalType":"address"}],"outputs":[{"name":"","type":"bool","internalType":"bool"}],"stateMutability":"view"},{"type":"function","name":"pause","inputs":[],"outputs":[],"stateMutability":"nonpayable"},{"type":"function","name":"paused","inputs":[],"outputs":[{"name":"","type":"bool","internalType":"bool"}],"stateMutability":"view"},{"type":"function","name":"removeDelegate","inputs":[{"name":"bucketName","type":"string","internalType":"string"},{"name":"delegate","type":"address","internalType":"address"}],"outputs":[],"stateMutability":"nonpayable"},{"type":"function","name":"renounceRole","inputs":[{"name":"role","type":"bytes32","internalType":"bytes32"},{"name":"callerConfirmation","type":"address","internalType":"address"}],"outputs":[],"stateMutability":"nonpayable"},{"type":"function","name":"revokeRole","inputs":[{"name":"role","type":"bytes32","internalType":"bytes32"},{"name":"account","type":"address","internalType":"address"}],"outputs":[],"stateMutability":"nonpayable"},{"type":"function","name":"spendFromBucket","inputs":[{"name":"user","type":"address","internalType":"address"},{"name":"bucketName","type":"string","internalType":"string"},{"name":"amount","type":"uint256","internalType":"uint256"},{"name":"recipient","type":"address","internalType":"address payable"},{"name":"token","type":"address","internalType":"address"},{"name":"data","type":"bytes","internalType":"bytes"}],"outputs":[],"stateMutability":"nonpayable"},{"type":"function","name":"supportsInterface","inputs":[{"name":"interfaceId","type":"bytes4","internalType":"bytes4"}],"outputs":[{"name":"","type":"bool","internalType":"bool"}],"stateMutability":"view"},{"type":"function","name":"transferBetweenBuckets","inputs":[{"name":"fromBucket","type":"string","internalType":"string"},{"name":"toBucket","type":"string","internalType":"string"},{"name":"amount","type":"uint256","internalType":"uint256"},{"name":"token","type":"address","internalType":"address"}],"outputs":[],"stateMutability":"nonpayable"},{"type":"function","name":"unpause","inputs":[],"outputs":[],"stateMutability":"nonpayable"},{"type":"function","name":"updateBucket","inputs":[{"name":"bucketName","type":"string","internalType":"string"},{"name":"newMonthlyLimit","type":"uint256","internalType":"uint256"},{"name":"active","type":"bool","internalType":"bool"}],"outputs":[],"stateMutability":"nonpayable"},{"type":"function","name":"userBucketNames","inputs":[{"name":"","type":"address","internalType":"address"},{"name":"","type":"uint256","internalType":"uint256"}],"outputs":[{"name":"","type":"string","internalType":"string"}],"stateMutability":"view"},{"type":"function","name":"userBuckets","inputs":[{"name":"","type":"address","internalType":"address"},{"name":"","type":"string","internalType":"string"}],"outputs":[{"name":"balance","type":"uint256","internalType":"uint256"},{"name":"monthlySpent","type":"uint256","internalType":"uint256"},{"name":"monthlyLimit","type":"uint256","internalType":"uint256"},{"name":"lastResetTimestamp","type":"uint256","internalType":"uint256"},{"name":"exists","type":"bool","internalType":"bool"},{"name":"active","type":"bool","internalType":"bool"}],"stateMutability":"view"},{"type":"function","name":"userTokenBalances","inputs":[{"name":"","type":"address","internalType":"address"},{"name":"","type":"address","internalType":"address"}],"outputs":[{"name":"unallocated","type":"uint256","internalType":"uint256"}],"stateMutability":"view"},{"type":"event","name":"BucketCreated","inputs":[{"name":"user","type":"address","indexed":true,"internalType":"address"},{"name":"bucketName","type":"string","indexed":false,"internalType":"string"},{"name":"monthlyLimit","type":"uint256","indexed":false,"internalType":"uint256"}],"anonymous":false},{"type":"event","name":"BucketFunded","inputs":[{"name":"user","type":"address","indexed":true,"internalType":"address"},{"name":"bucketName","type":"string","indexed":false,"internalType":"string"},{"name":"amount","type":"uint256","indexed":false,"internalType":"uint256"},{"name":"token","type":"address","indexed":false,"internalType":"address"}],"anonymous":false},{"type":"event","name":"BucketTransfer","inputs":[{"name":"user","type":"address","indexed":true,"internalType":"address"},{"name":"fromBucket","type":"string","indexed":false,"internalType":"string"},{"name":"toBucket","type":"string","indexed":false,"internalType":"string"},{"name":"amount","type":"uint256","indexed":false,"internalType":"uint256"},{"name":"token","type":"address","indexed":false,"internalType":"address"}],"anonymous":false},{"type":"event","name":"BucketUpdated","inputs":[{"name":"user","type":"address","indexed":true,"internalType":"address"},{"name":"bucketName","type":"string","indexed":false,"internalType":"string"},{"name":"newLimit","type":"uint256","indexed":false,"internalType":"uint256"},{"name":"active","type":"bool","indexed":false,"internalType":"bool"}],"anonymous":false},{"type":"event","name":"DelegateAdded","inputs":[{"name":"user","type":"address","indexed":true,"internalType":"address"},{"name":"delegate","type":"address","indexed":true,"internalType":"address"},{"name":"bucketName","type":"string","indexed":false,"internalType":"string"}],"anonymous":false},{"type":"event","name":"DelegateRemoved","inputs":[{"name":"user","type":"address","indexed":true,"internalType":"address"},{"name":"delegate","type":"address","indexed":true,"internalType":"address"},{"name":"bucketName","type":"string","indexed":false,"internalType":"string"}],"anonymous":false},{"type":"event","name":"EmergencyWithdraw","inputs":[{"name":"user","type":"address","indexed":true,"internalType":"address"},{"name":"token","type":"address","indexed":false,"internalType":"address"},{"name":"amount","type":"uint256","indexed":false,"internalType":"uint256"}],"anonymous":false},{"type":"event","name":"FundsDeposited","inputs":[{"name":"user","type":"address","indexed":true,"internalType":"address"},{"name":"amount","type":"uint256","indexed":false,"internalType":"uint256"},{"name":"token","type":"address","indexed":false,"internalType":"address"}],"anonymous":false},{"type":"event","name":"MonthlyLimitReset","inputs":[{"name":"user","type":"address","indexed":true,"internalType":"address"},{"name":"bucketName","type":"string","indexed":false,"internalType":"string"}],"anonymous":false},{"type":"event","name":"Paused","inputs":[{"name":"account","type":"address","indexed":false,"internalType":"address"}],"anonymous":false},{"type":"event","name":"RoleAdminChanged","inputs":[{"name":"role","type":"bytes32","indexed":true,"internalType":"bytes32"},{"name":"previousAdminRole","type":"bytes32","indexed":true,"internalType":"bytes32"},{"name":"newAdminRole","type":"bytes32","indexed":true,"internalType":"bytes32"}],"anonymous":false},{"type":"event","name":"RoleGranted","inputs":[{"name":"role","type":"bytes32","indexed":true,"internalType":"bytes32"},{"name":"account","type":"address","indexed":true,"internalType":"address"},{"name":"sender","type":"address","indexed":true,"internalType":"address"}],"anonymous":false},{"type":"event","name":"RoleRevoked","inputs":[{"name":"role","type":"bytes32","indexed":true,"internalType":"bytes32"},{"name":"account","type":"address","indexed":true,"internalType":"address"},{"name":"sender","type":"address","indexed":true,"internalType":"address"}],"anonymous":false},{"type":"event","name":"SpentFromBucket","inputs":[{"name":"user","type":"address","indexed":true,"internalType":"address"},{"name":"bucketName","type":"string","indexed":false,"internalType":"string"},{"name":"amount","type":"uint256","indexed":false,"internalType":"uint256"},{"name":"recipient","type":"address","indexed":false,"internalType":"address"},{"name":"token","type":"address","indexed":false,"internalType":"address"}],"anonymous":false},{"type":"event","name":"Unpaused","inputs":[{"name":"account","type":"address","indexed":false,"internalType":"address"}],"anonymous":false},{"type":"error","name":"AccessControlBadConfirmation","inputs":[]},{"type":"error","name":"AccessControlUnauthorizedAccount","inputs":[{"name":"account","type":"address","internalType":"address"},{"name":"neededRole","type":"bytes32","internalType":"bytes32"}]},{"type":"error","name":"EnforcedPause","inputs":[]},{"type":"error","name":"ExpectedPause","inputs":[]},{"type":"error","name":"ReentrancyGuardReentrantCall","inputs":[]},{"type":"error","name":"SafeERC20FailedOperation","inputs":[{"name":"token","type":"address","internalType":"address"}]}],"bytecode":{"object":"0x608060405234610030576001805561001633610034565b50610020336100aa565b506040516130d0908161013e8239f35b5f80fd5b6001600160a01b0381165f9081525f51602061324e5f395f51905f52602052604090205460ff166100a5576001600160a01b03165f8181525f51602061324e5f395f51905f5260205260408120805460ff191660011790553391905f51602061320e5f395f51905f528180a4600190565b505f90565b6001600160a01b0381165f9081525f51602061322e5f395f51905f52602052604090205460ff166100a5576001600160a01b03165f8181525f51602061322e5f395f51905f5260205260408120805460ff191660011790553391907fa49807205ce4d355092ef5a8a18f56e8913cf4a201fbe287825b095693c21775905f51602061320e5f395f51905f529080a460019056fe6080806040526004361015610092575b50361561001a575f80fd5b335f52600560205260405f205f805260205261003e600160405f2001543490612985565b335f52600560205260405f205f8052602052600160405f2001556040517fdf4dcf17030d087ed1d90ed3c90719c7260706c1c4a88505dd2d0a982887cf4360408201913481525f60208201528033930390a2005b5f3560e01c90816301ffc9a7146125f957508063091528a814612223578063142b3b80146121bf578063248a9ca3146121955780632f2ff15d146121585780632f4e534914611e69578063338b5dea14611d4257806336568abe14611cfe5780633f4ba83a14611ca857806343f83efc14611c3b57806345f2d10514611be85780634a8c569b14611be857806351bd551f14611afc5780635c975abb14611ada5780635df0782114611a025780636382d9ad1461168b57806366447aa91461160757806369cbca18146112cb57806372c16a241461129157806373e2ec5a146111ff57806375b238fc146111c55780638456cb591461116c57806385a4f0c61461108957806391d1485414611041578063a217fddf14611027578063a734f06e14611027578063ac17884414610d5c578063b7728efe14610c5c578063d096245714610b95578063d547741f14610b51578063d85bf0d514610afb578063db850a4a1461099b578063f4a814fd1461097e578063f578c3ed146102655763f6326fb31461021f575f61000f565b5f36600319011261026157610232612dd1565b61023d341515612c11565b335f52600560205260405f205f805260205261003e60405f20600134910154612985565b5f80fd5b346102615760c03660031901126102615761027e61264c565b602435906001600160401b03821161026157366023830112156102615781600401356102a9816128c3565b926102b7604051948561268e565b8184526024602085019260051b820101903682116102615760248101925b82841061094f5760443585876001600160401b038311610261573660238401121561026157826004013592610309846128c3565b93610317604051958661268e565b8085526024602086019160051b8301019136831161026157602401905b82821061093f575050506064356001600160401b0381116102615761035d9036906004016128da565b926084356001600160401b0381116102615761037d9036906004016128da565b60a435916001600160401b03831161026157366023840112156102615782600401356103a8816128c3565b936103b6604051958661268e565b8185526024602086019260051b820101903682116102615760248101925b8284106108ff57505050506103e7612db1565b6103ef612dd1565b6103fc8451825114612d6d565b6104098451875114612d6d565b6104168451835114612d6d565b6104238451845114612d6d565b6001600160a01b0385163381149590945f5b81518110156108f9578788156108ad575b8015610876575b61045690612948565b6104608183612c5d565b51908161046d8287612c5d565b516001600160a01b03610480848e612c5d565b51166001600160a01b03610494858b612c5d565b5116906104a1858c612c5d565b518c5f5260036020526104d760ff600460405f2060206040518092828c519c019b808d845e820190815203019020015416612b74565b8c5f52600360205260ff600460405f20602060405180928c51808c845e820190815203019020015460081c161561083c5761051e8461051789868d612cbd565b1015612c71565b610529841515612bb8565b8115610803578c5f52600360205260405f20602060405180928a51808a845e820190815203019020600381019586549662278d0088018098116107ef578f974210156107a5575b50600282015480610749575b506001820161058c878254612985565b905584610643575084955090816105a85f949596859454612c04565b905560208151910186855af16105bc612dec565b5015610608576001948b935f51602061307b5f395f51905f52936105ef935b60405194859460808652608086019061271e565b926020850152604084015260608301520390a201610435565b60405162461bcd60e51b8152602060048201526013602482015272115512081d1c985b9cd9995c8819985a5b1959606a1b6044820152606490fd5b9050855f52600560205260405f2060018060a01b0385165f526020526106838560405f20602060405180928d518088845e82019081520301902054612c04565b90865f52600560205260405f2060018060a01b0386165f52602052602060405f20916040519283918c518091845e820190815203019020556106c6848385612fe6565b805190816106ed575b5050945f51602061307b5f395f51905f52926105ef926001976105db565b5f929394955090602083920182855af1610705612dec565b501561071657908a92918e806106cf565b60405162461bcd60e51b815260206004820152600b60248201526a10d85b1b0819985a5b195960aa1b6044820152606490fd5b90965061075a866001840154612985565b11610767578d955f61057c565b60405162461bcd60e51b8152602060048201526016602482015275135bdb9d1a1b1e481b1a5b5a5d08195e18d95959195960521b6044820152606490fd5b5f6001840155429055867f48a7cae487aff3cf6daa7e2717d471ebd3aaf099c2a333220974d499cecd6a0260405160208152806107e68d602083019061271e565b0390a25f610570565b634e487b7160e01b5f52601160045260245ffd5b60405162461bcd60e51b8152602060048201526011602482015270125b9d985b1a59081c9958da5c1a595b9d607a1b6044820152606490fd5b60405162461bcd60e51b81526020600482015260126024820152714275636b657420697320696e61637469766560701b6044820152606490fd5b50335f9081527f7d7ffb7a348e1c6a02869081a26547b49160dd3df72d1d75a570eb9b698292ec602052604090205460ff1661044d565b50865f526003602052600660208060405f206108c98587612c5d565b5190604051938285935191829101845e820190815203019020335f9081529101602052604090205460ff16610446565b60018055005b83356001600160401b0381116102615782013660438201121561026157602091610934839236906044602482013591016126ca565b8152019301926103d4565b8135815260209182019101610334565b83356001600160401b03811161026157602091610973839260243691870101612700565b8152019301926102d5565b34610261575f36600319011261026157602060405162278d008152f35b34610261576109a936612882565b90335f52600360205260405f20916109e060ff600460405160208187519882890199808b845e820190815203019020015416612b74565b6001600160a01b0316918215610ab657338314610a7157600690335f526003602052602060405f209160405192839186518091845e82019081520301902001825f5260205260405f20600160ff198254161790557f5445f29a802bfabd877ef3e612e6cbf11f61ed37b0d1881dd83277d2643392946040516020815280610a6c3394602083019061271e565b0390a3005b60405162461bcd60e51b815260206004820152601760248201527f43616e6e6f742064656c656761746520746f2073656c660000000000000000006044820152606490fd5b60405162461bcd60e51b815260206004820152601860248201527f496e76616c69642064656c6567617465206164647265737300000000000000006044820152606490fd5b3461026157606036600319011261026157610b1461264c565b610b1c612662565b90604435906001600160401b03821161026157602092610b43610b49933690600401612700565b91612cbd565b604051908152f35b3461026157604036600319011261026157610b93600435610b70612662565b90610b8e610b89825f525f602052600160405f20015490565b612e8a565b612f4a565b005b3461026157610ba336612882565b90335f526003602052600660405f20610bdb60ff6004604051602081885196828a01978089845e820190815203019020015416612b74565b335f526003602052602060405f209160405192839186518091845e8201908152030190200160018060a01b0383165f5260205260405f2060ff1981541690557f5fd090e6ffe52b190bc83ab8daf49a555b610b4d87c152ad0aa8f6b1ce134e76604051926020845260018060a01b03169280610a6c3394602083019061271e565b34610261576060366003190112610261576004356001600160401b03811161026157610c8c903690600401612700565b6024359060443590811515809203610261577fa7083a0250abce15186cd07885aba3f71396cfd7d899d87141aedd48c5a27cbd91335f526003602052600460405f20610cf660ff83604051602081895196828b01978089845e820190815203019020015416612b74565b335f526003602052602060405f209160405192839187518091845e82019081520301902085600282015501805461ff008360081b169061ff001916179055610d496040519260608452606084019061271e565b93602083015260408201528033930390a2005b34610261576080366003190112610261576004356001600160401b03811161026157610d8c903690600401612700565b6024356001600160401b03811161026157610dab903690600401612700565b604435916064356001600160a01b03811690818103610261577f8cd6167d21bbc19a0781a8c30d96d83c0b4fe5441f7f5367cfa5dfcb0de5966e936020610f4392335f5260038252610e63886105178860405f2094610e2860ff60046040518a8187519b8c838a019d8e845e820190815203019020015416612b74565b335f5260038752610e5d60ff600460405f208a8c60405192818492519e8f91019e8f845e820190815203019020015416612b74565b33612cbd565b610e6b612dd1565b610e76881515612bb8565b84610f5657335f526003602052610ea78860405f20602060405180928b518088845e82019081520301902054612c04565b90335f526003602052602060405f20916040519283918a518091845e82019081520301902055335f526003602052610ef98760405f206020604051809287518088845e82019081520301902054612985565b90335f526003602052602060405f209160405192839186518091845e820190815203019020555b610f356040519460808652608086019061271e565b90848203602086015261271e565b93604083015260608201528033930390a2005b335f52600560205260405f20855f52602052610f8c8860405f20602060405180928b518088845e82019081520301902054612c04565b90335f52600560205260405f20865f52602052602060405f20916040519283918a518091845e82019081520301902055335f52600560205260405f20845f52602052610ff28760405f206020604051809287518088845e82019081520301902054612985565b90335f52600560205260405f20855f52602052602060405f209160405192839186518091845e82019081520301902055610f20565b34610261575f3660031901126102615760206040515f8152f35b346102615760403660031901126102615761105a612662565b6004355f525f60205260405f209060018060a01b03165f52602052602060ff60405f2054166040519015158152f35b34610261576020366003190112610261576001600160a01b036110aa61264c565b165f52600460205260405f208054906110c2826128c3565b916110d0604051938461268e565b8083526020830180925f5260205f205f915b83831061114f57848660405191829160208301906020845251809152604083019060408160051b85010192915f905b82821061112057505050500390f35b9193600191939550602061113f8192603f198a8203018652885161271e565b9601920192018594939192611111565b60016020819261115e856127a3565b8152019201920191906110e2565b34610261575f36600319011261026157611184612e1b565b61118c612dd1565b600160ff1960025416176002557f62e78cea01bee320cd4e420270b5ea74000d11b0c9f74754ebdbfc544b05a2586020604051338152a1005b34610261575f3660031901126102615760206040517fa49807205ce4d355092ef5a8a18f56e8913cf4a201fbe287825b095693c217758152f35b346102615760603660031901126102615761121861264c565b6024356001600160401b0381116102615760208061123c6006933690600401612700565b611244612678565b9460018060a01b03165f526003825260405f20604051938285935191829101845e820190815203019020019060018060a01b03165f52602052602060ff60405f2054166040519015158152f35b34610261575f3660031901126102615760206040517f7434c6f201a551bfd17336985361933e0c4935b520dac8a49d937b325f7d5c0a8152f35b34610261576040366003190112610261576004356001600160401b038111610261576112fb903690600401612700565b602435611306612dd1565b335f52600360205260405f2060ff6004604051602081875195828901968088845e8201908152030190200154166115ca5782511561158557602083511161154957600490335f526003602052602060405f209160405192839187518091845e8201908152030190208260028201554260038201550161010161ffff19825416179055335f52600460205260405f20805468010000000000000000811015611522576113b691600182018155612742565b929092611536578051926001600160401b038411611522576113d8815461276b565b601f81116114dd575b50602093601f811160011461145c57807faa0412a621f43eaa6351d59b17fc8854de9a6d9a67a664d3ea56dd039354728894955f91611451575b508160011b915f199060031b1c19161790555b6114436040519160408352604083019061271e565b9260208201528033930390a2005b90508301518661141b565b601f198116825f52855f20905f5b8181106114c55750907faa0412a621f43eaa6351d59b17fc8854de9a6d9a67a664d3ea56dd039354728895968360019493106114ad575b5050811b01905561142e565b8501515f1960f88460031b161c1916905586806114a1565b8588015183556020978801976001909301920161146a565b815f5260205f20601f860160051c81019160208710611518575b601f0160051c01905b81811061150d57506113e1565b5f8155600101611500565b90915081906114f7565b634e487b7160e01b5f52604160045260245ffd5b634e487b7160e01b5f525f60045260245ffd5b60405162461bcd60e51b81526020600482015260146024820152734275636b6574206e616d6520746f6f206c6f6e6760601b6044820152606490fd5b60405162461bcd60e51b815260206004820152601b60248201527f4275636b6574206e616d652063616e6e6f7420626520656d70747900000000006044820152606490fd5b60405162461bcd60e51b81526020600482015260156024820152744275636b657420616c72656164792065786973747360581b6044820152606490fd5b346102615760c060208061161a36612843565b9060018060a01b03165f526003825260405f20604051938285935191829101845e82019081520301902060ff815491600181015490600281015460046003830154920154926040519586526020860152604085015260608401528181161515608084015260081c16151560a0820152f35b34610261576040366003190112610261576116a461264c565b6116ac612662565b906116b5612e1b565b6116bd612fca565b6116c5612db1565b6001600160a01b03821680611881575060018060a01b031690815f52600560205260405f205f8052602052600160405f200154825f52600460205260405f20908154611710816128c3565b9261171e604051948561268e565b81845260208401905f5260205f205f915b83831061186457505050505f905b82518210156117c157611785600191865f52600360205260208060405f206117658789612c5d565b5190604051938285935191829101845e8201908152030190205490612985565b91855f5260036020525f602080604083206117a08589612c5d565b5190604051938285935191829101845e82019081520301902055019061173d565b915050825f52600560205260405f205f80526020525f6001604082200155801580156117f2575b5050505060018055005b81845f9261185a575b5f92839283928392f11561184f57604080516001600160a01b0393909316835260208301919091527ff24ef89f38eadc1bde50701ad6e4d6d11a2dc24f7cf834a486991f388332850491a2808080806117e8565b6040513d5f823e3d90fd5b6108fc92506117fb565b600160208192611873856127a3565b81520192019201919061172f565b9160018060a01b03821692835f52600560205260405f20815f52602052600160405f200154845f52600460205260405f209283546118be816128c3565b946118cc604051968761268e565b81865260208601905f5260205f205f915b8383106119e557505050505f915b84518310156119635761191d600191885f52600560205260405f20865f5260205260208060405f20611765888b612c5d565b92875f52600560205260405f20855f526020525f60208060408320611942858b612c5d565b5190604051938285935191829101845e8201908152030190205501916118eb565b935091939050845f52600560205260405f20845f526020525f600160408220015582611994575b50505050506108f9565b826119c0917ff24ef89f38eadc1bde50701ad6e4d6d11a2dc24f7cf834a486991f388332850495612fe6565b604080516001600160a01b039290921682526020820192909252a2808080808061198a565b6001602081926119f4856127a3565b8152019201920191906118dd565b34610261576020611a1236612843565b919060018060a01b031691825f526003825260405f2092611a5160ff600460405186818751998289019a808c845e820190815203019020015416612b74565b5f526003825260405f20604051938492518091845e82019081520301902060038101549062278d0082018092116107ef5760a09142811115611ad257611a98904290612c04565b905b80549160018201549160ff6004600283015492015460081c169260405194855260208501526040840152606083015215156080820152f35b505f90611a9a565b34610261575f36600319011261026157602060ff600254166040519015158152f35b3461026157604036600319011261026157611b1561264c565b611b1d612662565b60018060a01b03821691825f52600560205260405f2060018060a01b0383165f52602052600160405f200154925f52600460205260405f20918254611b61816128c3565b93611b6f604051958661268e565b81855260208501905f5260205f205f915b838310611bcb57505050505f935b8351851015611bc057611bb8600191611bb2611baa8888612c5d565b518587612cbd565b90612985565b940193611b8e565b602090604051908152f35b600160208192611bda856127a3565b815201920192019190611b80565b34610261576040366003190112610261576020610b49611c0661264c565b611c0e612662565b9060018060a01b03165f52600560205260405f209060018060a01b03165f52602052600160405f20015490565b3461026157604036600319011261026157611c5461264c565b6001600160a01b03165f90815260046020526040902080546024359081101561026157611c8091612742565b61153657611c90611ca4916127a3565b60405191829160208352602083019061271e565b0390f35b34610261575f36600319011261026157611cc0612e1b565b611cc8612fca565b60ff19600254166002557f5db9ee0a495bf2e6ff9c91a7834c1ba4fdd244a5e8aa4e537bd38aeae4b073aa6020604051338152a1005b3461026157604036600319011261026157611d17612662565b336001600160a01b03821603611d3357610b9390600435612f4a565b63334bd91960e11b5f5260045ffd5b3461026157604036600319011261026157611d5b61264c565b60243590611d67612dd1565b6001600160a01b03168015611e2b57611d81821515612c11565b611dbb6040516323b872dd60e01b602082015233602482015230604482015283606482015260648152611db560848261268e565b82613022565b335f52600560205260405f20815f52602052611dde82600160405f200154612985565b335f52600560205260405f20825f52602052600160405f20015560405191825260208201527fdf4dcf17030d087ed1d90ed3c90719c7260706c1c4a88505dd2d0a982887cf4360403392a2005b60405162461bcd60e51b81526020600482015260166024820152750aae6ca40c8cae0dee6d2e88aa89040ccdee4408aa8960531b6044820152606490fd5b34610261576060366003190112610261576004356001600160401b03811161026157611e99903690600401612700565b60243590611ea5612678565b90335f52600360205260405f2091611edc60ff600460405160208187519882890199808b845e820190815203019020015416612b74565b611ee4612dd1565b611eef841515612bb8565b6001600160a01b03168061202957335f52600560205260405f205f805260205283600160405f20015410611fe4577fd01299d91bb93f9fb900d04f6f15e1f37e590d4532e624fdd034ca96067e732192335f52600560205260405f205f8052602052611f6285600160405f200154612c04565b335f52600560205260405f205f8052602052600160405f200155335f526003602052611fa88560405f206020604051809288518088845e82019081520301902054612985565b90335f526003602052602060405f209160405192839187518091845e820190815203019020555b610d496040519260608452606084019061271e565b60405162461bcd60e51b815260206004820152601c60248201527f496e73756666696369656e7420756e616c6c6f636174656420455448000000006044820152606490fd5b335f52600560205260405f20815f5260205283600160405f20015410612113577fd01299d91bb93f9fb900d04f6f15e1f37e590d4532e624fdd034ca96067e732192335f52600560205260405f20825f5260205261208e85600160405f200154612c04565b335f52600560205260405f20835f52602052600160405f200155335f52600560205260405f20825f526020526120de8560405f206020604051809288518088845e82019081520301902054612985565b90335f52600560205260405f20835f52602052602060405f209160405192839187518091845e82019081520301902055611fcf565b60405162461bcd60e51b815260206004820152601f60248201527f496e73756666696369656e7420756e616c6c6f636174656420746f6b656e73006044820152606490fd5b3461026157604036600319011261026157610b93600435612177612662565b90612190610b89825f525f602052600160405f20015490565b612ec2565b34610261576020366003190112610261576020610b496004355f525f602052600160405f20015490565b34610261576060366003190112610261576121d861264c565b602435906001600160401b038211610261576121fb612204923690600401612700565b60443591612992565b90611ca46040519283921515835260406020840152604083019061271e565b346102615760c03660031901126102615761223c61264c565b6024356001600160401b0381116102615761225b903690600401612700565b604435906064356001600160a01b0381169190829003610261576084356001600160a01b03811693908481036102615760a435956001600160401b0387116102615736602388011215610261578660040135966001600160401b0388116102615736602489830101116102615761230b906122d4612db1565b6122dc612dd1565b6001600160a01b03831698338a1480156125b9575b8015612582575b61230190612948565b60243692016126ca565b91875f52600360205260405f209161234260ff60046040516020818b5198828d0199808b845e820190815203019020015416612b74565b885f52600360205260ff600460405f20602060405180928b51808a845e820190815203019020015460081c161561083c5761051786612382938793612cbd565b61238d831515612bb8565b841561080357865f52600360205260405f206020604051809287518086845e8201908152030190209060038201805462278d0081018091116107ef57421015612539575b50600282015480612520575b50600182016123ed858254612985565b90558661245e57505f918161240485859454612c04565b905560208151910184875af1612418612dec565b5015610608575f51602061307b5f395f51905f52936124459360405194859460808652608086019061271e565b926020850152604084015260608301520390a260018055005b9050865f9593949552600560205260405f20865f5260205261249a8460405f20602060405180928a518088845e82019081520301902054612c04565b90875f52600560205260405f20875f52602052602060405f209160405192839189518091845e820190815203019020556124d5838387612fe6565b805190816124fa575b5050905f51602061307b5f395f51905f529361244593926105db565b5f9160208392969594960182875af1612511612dec565b501561071657909185806124de565b61252e856001850154612985565b1161076757886123dd565b5f6001840155429055877f48a7cae487aff3cf6daa7e2717d471ebd3aaf099c2a333220974d499cecd6a026040516020815280612579602082018a61271e565b0390a2886123d1565b50335f9081527f7d7ffb7a348e1c6a02869081a26547b49160dd3df72d1d75a570eb9b698292ec602052604090205460ff166122f8565b50895f526003602052600660405f2060206040518092828c805191829101845e820190815203019020335f9081529101602052604090205460ff166122f1565b34610261576020366003190112610261576004359063ffffffff60e01b821680920361026157602091637965db0b60e01b811490811561263b575b5015158152f35b6301ffc9a760e01b14905083612634565b600435906001600160a01b038216820361026157565b602435906001600160a01b038216820361026157565b604435906001600160a01b038216820361026157565b90601f801991011681019081106001600160401b0382111761152257604052565b6001600160401b03811161152257601f01601f191660200190565b9291926126d6826126af565b916126e4604051938461268e565b829481845281830111610261578281602093845f960137010152565b9080601f830112156102615781602061271b933591016126ca565b90565b805180835260209291819084018484015e5f828201840152601f01601f1916010190565b8054821015612757575f5260205f2001905f90565b634e487b7160e01b5f52603260045260245ffd5b90600182811c92168015612799575b602083101461278557565b634e487b7160e01b5f52602260045260245ffd5b91607f169161277a565b9060405191825f8254926127b68461276b565b808452936001811690811561282157506001146127dd575b506127db9250038361268e565b565b90505f9291925260205f20905f915b8183106128055750509060206127db928201015f6127ce565b60209193508060019154838589010152019101909184926127ec565b9050602092506127db94915060ff191682840152151560051b8201015f6127ce565b906040600319830112610261576004356001600160a01b03811681036102615791602435906001600160401b0382116102615761271b91600401612700565b604060031982011261026157600435906001600160401b038211610261576128ac91600401612700565b906024356001600160a01b03811681036102615790565b6001600160401b0381116115225760051b60200190565b9080601f83011215610261578135906128f2826128c3565b92612900604051948561268e565b82845260208085019360051b82010191821161026157602001915b8183106129285750505090565b82356001600160a01b03811681036102615781526020928301920161291b565b1561294f57565b60405162461bcd60e51b815260206004820152600e60248201526d139bdd08185d5d1a1bdc9a5e995960921b6044820152606490fd5b919082018092116107ef57565b60018060a01b0316805f52600360205260405f209160ff600460405160208185519782870198808a845e82019081520301902001541615612b3b57815f52600360205260ff600460405f20602060405180928651808a845e820190815203019020015460081c1615612b05576020915f526003825260405f20604051938492518091845e82019081520301902081815410612ac65760028101549182612a4d575b505050600190604051612a4760208261268e565b5f815290565b600360018301549201549162278d0083018093116107ef57612a7592421015612abf57612985565b11612a82575f8080612a33565b5f90604051612a9260408261268e565b601a81527f576f756c6420657863656564206d6f6e74686c79206c696d6974000000000000602082015290565b505f612985565b50505f90604051612ad860408261268e565b601b81527f496e73756666696369656e74206275636b65742062616c616e63650000000000602082015290565b505050505f90604051612b1960408261268e565b60128152714275636b657420697320696e61637469766560701b602082015290565b505050505f90604051612b4f60408261268e565b6015815274109d58dad95d08191bd95cc81b9bdd08195e1a5cdd605a1b602082015290565b15612b7b57565b60405162461bcd60e51b8152602060048201526015602482015274109d58dad95d08191bd95cc81b9bdd08195e1a5cdd605a1b6044820152606490fd5b15612bbf57565b60405162461bcd60e51b815260206004820152601d60248201527f416d6f756e74206d7573742062652067726561746572207468616e20300000006044820152606490fd5b919082039182116107ef57565b15612c1857565b60405162461bcd60e51b815260206004820152601860248201527f4d757374206465706f736974206d6f7265207468616e203000000000000000006044820152606490fd5b80518210156127575760209160051b010190565b15612c7857565b60405162461bcd60e51b815260206004820152601b60248201527f496e73756666696369656e74206275636b65742062616c616e636500000000006044820152606490fd5b91909160018060a01b031690815f52600360205260405f209260ff600460405160208186519882880199808b845e82019081520301902001541615612d65576020926001600160a01b03821615612d41575f526005835260405f209060018060a01b03165f52825260405f20604051938492518091845e8201908152030190205490565b90505f526003825260405f20604051938492518091845e8201908152030190205490565b505050505f90565b15612d7457565b60405162461bcd60e51b8152602060048201526015602482015274082e4e4c2f240d8cadccee8d040dad2e6dac2e8c6d605b1b6044820152606490fd5b600260015414612dc2576002600155565b633ee5aeb560e01b5f5260045ffd5b60ff60025416612ddd57565b63d93c066560e01b5f5260045ffd5b3d15612e16573d90612dfd826126af565b91612e0b604051938461268e565b82523d5f602084013e565b606090565b335f9081527f7d7ffb7a348e1c6a02869081a26547b49160dd3df72d1d75a570eb9b698292ec602052604090205460ff1615612e5357565b63e2517d3f60e01b5f52336004527fa49807205ce4d355092ef5a8a18f56e8913cf4a201fbe287825b095693c2177560245260445ffd5b5f8181526020818152604080832033845290915290205460ff1615612eac5750565b63e2517d3f60e01b5f523360045260245260445ffd5b5f818152602081815260408083206001600160a01b038616845290915290205460ff16612f44575f818152602081815260408083206001600160a01b0395909516808452949091528120805460ff19166001179055339291907f2f8788117e7eff1d82e926ec794901d17c78024a50270940304540a733656f0d9080a4600190565b50505f90565b5f818152602081815260408083206001600160a01b038616845290915290205460ff1615612f44575f818152602081815260408083206001600160a01b0395909516808452949091528120805460ff19169055339291907ff6391f5c32d9c69d2a47ea670b442974b53935d1edc7fd64eb21e047a839171b9080a4600190565b60ff6002541615612fd757565b638dfc202b60e01b5f5260045ffd5b60405163a9059cbb60e01b60208201526001600160a01b039290921660248301526044808301939093529181526127db9161302260648361268e565b905f602091828151910182855af11561184f575f513d61307157506001600160a01b0381163b155b6130515750565b635274afe760e01b5f9081526001600160a01b0391909116600452602490fd5b6001141561304a56fe21a8971d7f2f4d99234fe6ef84f11cd52662cd77cbf3af7a75d489f494466b7ea2646970667358221220a58251e62e464888b51abd591deb2f4efcff435ccc216070ae300d12769fc0da64736f6c634300081c00332f8788117e7eff1d82e926ec794901d17c78024a50270940304540a733656f0d7d7ffb7a348e1c6a02869081a26547b49160dd3df72d1d75a570eb9b698292ecad3228b676f7d3cd4284a5443f17f1962b36e491b30a40b2405849e597ba5fb5","linkReferences":{}},"methodIdentifiers":{"ADMIN_ROLE()":"75b238fc","DEFAULT_ADMIN_ROLE()":"a217fddf","ETH_ADDRESS()":"a734f06e","MONTH_SECONDS()":"f4a814fd","SPENDER_ROLE()":"72c16a24","addDelegate(string,address)":"db850a4a","batchSpend(address,string[],uint256[],address[],address[],bytes[])":"f578c3ed","canSpendFromBucket(address,string,uint256)":"142b3b80","createBucket(string,uint256)":"69cbca18","depositETH()":"f6326fb3","depositToken(address,uint256)":"338b5dea","emergencyWithdraw(address,address)":"6382d9ad","fundBucket(string,uint256,address)":"2f4e5349","getBucket(address,string)":"5df07821","getBucketBalance(address,address,string)":"d85bf0d5","getRoleAdmin(bytes32)":"248a9ca3","getTotalBalance(address,address)":"51bd551f","getUnallocatedBalance(address,address)":"4a8c569b","getUserBuckets(address)":"85a4f0c6","grantRole(bytes32,address)":"2f2ff15d","hasRole(bytes32,address)":"91d14854","isDelegate(address,string,address)":"73e2ec5a","pause()":"8456cb59","paused()":"5c975abb","removeDelegate(string,address)":"d0962457","renounceRole(bytes32,address)":"36568abe","revokeRole(bytes32,address)":"d547741f","spendFromBucket(address,string,uint256,address,address,bytes)":"091528a8","supportsInterface(bytes4)":"01ffc9a7","transferBetweenBuckets(string,string,uint256,address)":"ac178844","unpause()":"3f4ba83a","updateBucket(string,uint256,bool)":"b7728efe","userBucketNames(address,uint256)":"43f83efc","userBuckets(address,string)":"66447aa9","userTokenBalances(address,address)":"45f2d105"},"id":39}